{
  "contractName": "Color",
  "abi": [
    {
      "inputs": [],
      "stateMutability": "nonpayable",
      "type": "constructor"
    },
    {
      "anonymous": false,
      "inputs": [
        {
          "indexed": true,
          "internalType": "address",
          "name": "owner",
          "type": "address"
        },
        {
          "indexed": true,
          "internalType": "address",
          "name": "approved",
          "type": "address"
        },
        {
          "indexed": true,
          "internalType": "uint256",
          "name": "tokenId",
          "type": "uint256"
        }
      ],
      "name": "Approval",
      "type": "event"
    },
    {
      "anonymous": false,
      "inputs": [
        {
          "indexed": true,
          "internalType": "address",
          "name": "owner",
          "type": "address"
        },
        {
          "indexed": true,
          "internalType": "address",
          "name": "operator",
          "type": "address"
        },
        {
          "indexed": false,
          "internalType": "bool",
          "name": "approved",
          "type": "bool"
        }
      ],
      "name": "ApprovalForAll",
      "type": "event"
    },
    {
      "anonymous": false,
      "inputs": [
        {
          "indexed": true,
          "internalType": "address",
          "name": "from",
          "type": "address"
        },
        {
          "indexed": true,
          "internalType": "address",
          "name": "to",
          "type": "address"
        },
        {
          "indexed": true,
          "internalType": "uint256",
          "name": "tokenId",
          "type": "uint256"
        }
      ],
      "name": "Transfer",
      "type": "event"
    },
    {
      "inputs": [
        {
          "internalType": "address",
          "name": "to",
          "type": "address"
        },
        {
          "internalType": "uint256",
          "name": "tokenId",
          "type": "uint256"
        }
      ],
      "name": "approve",
      "outputs": [],
      "stateMutability": "nonpayable",
      "type": "function"
    },
    {
      "inputs": [
        {
          "internalType": "address",
          "name": "owner",
          "type": "address"
        }
      ],
      "name": "balanceOf",
      "outputs": [
        {
          "internalType": "uint256",
          "name": "",
          "type": "uint256"
        }
      ],
      "stateMutability": "view",
      "type": "function",
      "constant": true
    },
    {
      "inputs": [
        {
          "internalType": "uint256",
          "name": "",
          "type": "uint256"
        }
      ],
      "name": "colors",
      "outputs": [
        {
          "internalType": "string",
          "name": "",
          "type": "string"
        }
      ],
      "stateMutability": "view",
      "type": "function",
      "constant": true
    },
    {
      "inputs": [
        {
          "internalType": "uint256",
          "name": "tokenId",
          "type": "uint256"
        }
      ],
      "name": "getApproved",
      "outputs": [
        {
          "internalType": "address",
          "name": "",
          "type": "address"
        }
      ],
      "stateMutability": "view",
      "type": "function",
      "constant": true
    },
    {
      "inputs": [
        {
          "internalType": "address",
          "name": "owner",
          "type": "address"
        },
        {
          "internalType": "address",
          "name": "operator",
          "type": "address"
        }
      ],
      "name": "isApprovedForAll",
      "outputs": [
        {
          "internalType": "bool",
          "name": "",
          "type": "bool"
        }
      ],
      "stateMutability": "view",
      "type": "function",
      "constant": true
    },
    {
      "inputs": [],
      "name": "name",
      "outputs": [
        {
          "internalType": "string",
          "name": "",
          "type": "string"
        }
      ],
      "stateMutability": "view",
      "type": "function",
      "constant": true
    },
    {
      "inputs": [
        {
          "internalType": "uint256",
          "name": "tokenId",
          "type": "uint256"
        }
      ],
      "name": "ownerOf",
      "outputs": [
        {
          "internalType": "address",
          "name": "",
          "type": "address"
        }
      ],
      "stateMutability": "view",
      "type": "function",
      "constant": true
    },
    {
      "inputs": [
        {
          "internalType": "address",
          "name": "from",
          "type": "address"
        },
        {
          "internalType": "address",
          "name": "to",
          "type": "address"
        },
        {
          "internalType": "uint256",
          "name": "tokenId",
          "type": "uint256"
        }
      ],
      "name": "safeTransferFrom",
      "outputs": [],
      "stateMutability": "nonpayable",
      "type": "function"
    },
    {
      "inputs": [
        {
          "internalType": "address",
          "name": "from",
          "type": "address"
        },
        {
          "internalType": "address",
          "name": "to",
          "type": "address"
        },
        {
          "internalType": "uint256",
          "name": "tokenId",
          "type": "uint256"
        },
        {
          "internalType": "bytes",
          "name": "_data",
          "type": "bytes"
        }
      ],
      "name": "safeTransferFrom",
      "outputs": [],
      "stateMutability": "nonpayable",
      "type": "function"
    },
    {
      "inputs": [
        {
          "internalType": "address",
          "name": "operator",
          "type": "address"
        },
        {
          "internalType": "bool",
          "name": "approved",
          "type": "bool"
        }
      ],
      "name": "setApprovalForAll",
      "outputs": [],
      "stateMutability": "nonpayable",
      "type": "function"
    },
    {
      "inputs": [
        {
          "internalType": "bytes4",
          "name": "interfaceId",
          "type": "bytes4"
        }
      ],
      "name": "supportsInterface",
      "outputs": [
        {
          "internalType": "bool",
          "name": "",
          "type": "bool"
        }
      ],
      "stateMutability": "view",
      "type": "function",
      "constant": true
    },
    {
      "inputs": [],
      "name": "symbol",
      "outputs": [
        {
          "internalType": "string",
          "name": "",
          "type": "string"
        }
      ],
      "stateMutability": "view",
      "type": "function",
      "constant": true
    },
    {
      "inputs": [
        {
          "internalType": "uint256",
          "name": "tokenId",
          "type": "uint256"
        }
      ],
      "name": "tokenURI",
      "outputs": [
        {
          "internalType": "string",
          "name": "",
          "type": "string"
        }
      ],
      "stateMutability": "view",
      "type": "function",
      "constant": true
    },
    {
      "inputs": [
        {
          "internalType": "address",
          "name": "from",
          "type": "address"
        },
        {
          "internalType": "address",
          "name": "to",
          "type": "address"
        },
        {
          "internalType": "uint256",
          "name": "tokenId",
          "type": "uint256"
        }
      ],
      "name": "transferFrom",
      "outputs": [],
      "stateMutability": "nonpayable",
      "type": "function"
    },
    {
      "inputs": [
        {
          "internalType": "string",
          "name": "_color",
          "type": "string"
        }
      ],
      "name": "mint",
      "outputs": [],
      "stateMutability": "nonpayable",
      "type": "function"
    },
    {
      "inputs": [
        {
          "internalType": "address",
          "name": "owner",
          "type": "address"
        },
        {
          "internalType": "uint256",
          "name": "index",
          "type": "uint256"
        }
      ],
      "name": "tokenOfOwnerByIndex",
      "outputs": [
        {
          "internalType": "uint256",
          "name": "",
          "type": "uint256"
        }
      ],
      "stateMutability": "view",
      "type": "function",
      "constant": true
    },
    {
      "inputs": [],
      "name": "totalSupply",
      "outputs": [
        {
          "internalType": "uint256",
          "name": "",
          "type": "uint256"
        }
      ],
      "stateMutability": "view",
      "type": "function",
      "constant": true
    },
    {
      "inputs": [
        {
          "internalType": "uint256",
          "name": "index",
          "type": "uint256"
        }
      ],
      "name": "tokenByIndex",
      "outputs": [
        {
          "internalType": "uint256",
          "name": "",
          "type": "uint256"
        }
      ],
      "stateMutability": "view",
      "type": "function",
      "constant": true
    }
  ],
  "bytecode": "0x60806040523480156200001157600080fd5b506040518060400160405280600581526020017f436f6c6f720000000000000000000000000000000000000000000000000000008152506040518060400160405280600581526020017f434f4c4f52000000000000000000000000000000000000000000000000000000815250816000908051906020019062000096929190620000b8565b508060019080519060200190620000af929190620000b8565b505050620001cd565b828054620000c69062000197565b90600052602060002090601f016020900481019282620000ea576000855562000136565b82601f106200010557805160ff191683800117855562000136565b8280016001018555821562000136579182015b828111156200013557825182559160200191906001019062000118565b5b50905062000145919062000149565b5090565b5b80821115620001645760008160009055506001016200014a565b5090565b7f4e487b7100000000000000000000000000000000000000000000000000000000600052602260045260246000fd5b60006002820490506001821680620001b057607f821691505b60208210811415620001c757620001c662000168565b5b50919050565b612ac080620001dd6000396000f3fe608060405234801561001057600080fd5b50600436106101165760003560e01c80636352211e116100a2578063b88d4fde11610071578063b88d4fde14610305578063bd11f69d14610321578063c87b56dd14610351578063d85d3d2714610381578063e985e9c51461039d57610116565b80636352211e1461026b57806370a082311461029b57806395d89b41146102cb578063a22cb465146102e957610116565b806318160ddd116100e957806318160ddd146101b557806323b872dd146101d35780632f745c59146101ef57806342842e0e1461021f5780634f6ccce71461023b57610116565b806301ffc9a71461011b57806306fdde031461014b578063081812fc14610169578063095ea7b314610199575b600080fd5b61013560048036038101906101309190611942565b6103cd565b604051610142919061198a565b60405180910390f35b6101536104af565b6040516101609190611a3e565b60405180910390f35b610183600480360381019061017e9190611a96565b610541565b6040516101909190611b04565b60405180910390f35b6101b360048036038101906101ae9190611b4b565b6105c6565b005b6101bd6106de565b6040516101ca9190611b9a565b60405180910390f35b6101ed60048036038101906101e89190611bb5565b6106e7565b005b61020960048036038101906102049190611b4b565b610747565b6040516102169190611b9a565b60405180910390f35b61023960048036038101906102349190611bb5565b610753565b005b61025560048036038101906102509190611a96565b610773565b6040516102629190611b9a565b60405180910390f35b61028560048036038101906102809190611a96565b61077e565b6040516102929190611b04565b60405180910390f35b6102b560048036038101906102b09190611c08565b610830565b6040516102c29190611b9a565b60405180910390f35b6102d36108e8565b6040516102e09190611a3e565b60405180910390f35b61030360048036038101906102fe9190611c61565b61097a565b005b61031f600480360381019061031a9190611dd6565b610afb565b005b61033b60048036038101906103369190611a96565b610b5d565b6040516103489190611a3e565b60405180910390f35b61036b60048036038101906103669190611a96565b610c09565b6040516103789190611a3e565b60405180910390f35b61039b60048036038101906103969190611efa565b610cb0565b005b6103b760048036038101906103b29190611f43565b610d7d565b6040516103c4919061198a565b60405180910390f35b60007f80ac58cd000000000000000000000000000000000000000000000000000000007bffffffffffffffffffffffffffffffffffffffffffffffffffffffff1916827bffffffffffffffffffffffffffffffffffffffffffffffffffffffff1916148061049857507f5b5e139f000000000000000000000000000000000000000000000000000000007bffffffffffffffffffffffffffffffffffffffffffffffffffffffff1916827bffffffffffffffffffffffffffffffffffffffffffffffffffffffff1916145b806104a857506104a782610e11565b5b9050919050565b6060600080546104be90611fb2565b80601f01602080910402602001604051908101604052809291908181526020018280546104ea90611fb2565b80156105375780601f1061050c57610100808354040283529160200191610537565b820191906000526020600020905b81548152906001019060200180831161051a57829003601f168201915b5050505050905090565b600061054c82610e7b565b61058b576040517f08c379a000000000000000000000000000000000000000000000000000000000815260040161058290612056565b60405180910390fd5b6004600083815260200190815260200160002060009054906101000a900473ffffffffffffffffffffffffffffffffffffffff169050919050565b60006105d18261077e565b90508073ffffffffffffffffffffffffffffffffffffffff168373ffffffffffffffffffffffffffffffffffffffff161415610642576040517f08c379a0000000000000000000000000000000000000000000000000000000008152600401610639906120e8565b60405180910390fd5b8073ffffffffffffffffffffffffffffffffffffffff16610661610ee7565b73ffffffffffffffffffffffffffffffffffffffff161480610690575061068f8161068a610ee7565b610d7d565b5b6106cf576040517f08c379a00000000000000000000000000000000000000000000000000000000081526004016106c69061217a565b60405180910390fd5b6106d98383610eef565b505050565b60006001905090565b6106f86106f2610ee7565b82610fa8565b610737576040517f08c379a000000000000000000000000000000000000000000000000000000000815260040161072e9061220c565b60405180910390fd5b610742838383611086565b505050565b60006003905092915050565b61076e83838360405180602001604052806000815250610afb565b505050565b600060059050919050565b6000806002600084815260200190815260200160002060009054906101000a900473ffffffffffffffffffffffffffffffffffffffff169050600073ffffffffffffffffffffffffffffffffffffffff168173ffffffffffffffffffffffffffffffffffffffff161415610827576040517f08c379a000000000000000000000000000000000000000000000000000000000815260040161081e9061229e565b60405180910390fd5b80915050919050565b60008073ffffffffffffffffffffffffffffffffffffffff168273ffffffffffffffffffffffffffffffffffffffff1614156108a1576040517f08c379a000000000000000000000000000000000000000000000000000000000815260040161089890612330565b60405180910390fd5b600360008373ffffffffffffffffffffffffffffffffffffffff1673ffffffffffffffffffffffffffffffffffffffff168152602001908152602001600020549050919050565b6060600180546108f790611fb2565b80601f016020809104026020016040519081016040528092919081815260200182805461092390611fb2565b80156109705780601f1061094557610100808354040283529160200191610970565b820191906000526020600020905b81548152906001019060200180831161095357829003601f168201915b5050505050905090565b610982610ee7565b73ffffffffffffffffffffffffffffffffffffffff168273ffffffffffffffffffffffffffffffffffffffff1614156109f0576040517f08c379a00000000000000000000000000000000000000000000000000000000081526004016109e79061239c565b60405180910390fd5b80600560006109fd610ee7565b73ffffffffffffffffffffffffffffffffffffffff1673ffffffffffffffffffffffffffffffffffffffff16815260200190815260200160002060008473ffffffffffffffffffffffffffffffffffffffff1673ffffffffffffffffffffffffffffffffffffffff16815260200190815260200160002060006101000a81548160ff0219169083151502179055508173ffffffffffffffffffffffffffffffffffffffff16610aaa610ee7565b73ffffffffffffffffffffffffffffffffffffffff167f17307eab39ab6107e8899845ad3d59bd9653f200f220920489ca2b5937696c3183604051610aef919061198a565b60405180910390a35050565b610b0c610b06610ee7565b83610fa8565b610b4b576040517f08c379a0000000000000000000000000000000000000000000000000000000008152600401610b429061220c565b60405180910390fd5b610b57848484846112e2565b50505050565b60068181548110610b6d57600080fd5b906000526020600020016000915090508054610b8890611fb2565b80601f0160208091040260200160405190810160405280929190818152602001828054610bb490611fb2565b8015610c015780601f10610bd657610100808354040283529160200191610c01565b820191906000526020600020905b815481529060010190602001808311610be457829003601f168201915b505050505081565b6060610c1482610e7b565b610c53576040517f08c379a0000000000000000000000000000000000000000000000000000000008152600401610c4a9061242e565b60405180910390fd5b6000610c5d61133e565b90506000815111610c7d5760405180602001604052806000815250610ca8565b80610c8784611355565b604051602001610c9892919061248a565b6040516020818303038152906040525b915050919050565b600781604051610cc091906124ae565b908152602001604051809103902060009054906101000a900460ff1615610ce657600080fd5b600681908060018154018082558091505060019003906000526020600020016000909190919091509080519060200190610d21929190611833565b5060006001600680549050610d3691906124f4565b9050610d4233826114b6565b6001600783604051610d5491906124ae565b908152602001604051809103902060006101000a81548160ff0219169083151502179055505050565b6000600560008473ffffffffffffffffffffffffffffffffffffffff1673ffffffffffffffffffffffffffffffffffffffff16815260200190815260200160002060008373ffffffffffffffffffffffffffffffffffffffff1673ffffffffffffffffffffffffffffffffffffffff16815260200190815260200160002060009054906101000a900460ff16905092915050565b60007f01ffc9a7000000000000000000000000000000000000000000000000000000007bffffffffffffffffffffffffffffffffffffffffffffffffffffffff1916827bffffffffffffffffffffffffffffffffffffffffffffffffffffffff1916149050919050565b60008073ffffffffffffffffffffffffffffffffffffffff166002600084815260200190815260200160002060009054906101000a900473ffffffffffffffffffffffffffffffffffffffff1673ffffffffffffffffffffffffffffffffffffffff1614159050919050565b600033905090565b816004600083815260200190815260200160002060006101000a81548173ffffffffffffffffffffffffffffffffffffffff021916908373ffffffffffffffffffffffffffffffffffffffff160217905550808273ffffffffffffffffffffffffffffffffffffffff16610f628361077e565b73ffffffffffffffffffffffffffffffffffffffff167f8c5be1e5ebec7d5bd14f71427d1e84f3dd0314c0f7b2291e5b200ac8c7c3b92560405160405180910390a45050565b6000610fb382610e7b565b610ff2576040517f08c379a0000000000000000000000000000000000000000000000000000000008152600401610fe99061259a565b60405180910390fd5b6000610ffd8361077e565b90508073ffffffffffffffffffffffffffffffffffffffff168473ffffffffffffffffffffffffffffffffffffffff16148061106c57508373ffffffffffffffffffffffffffffffffffffffff1661105484610541565b73ffffffffffffffffffffffffffffffffffffffff16145b8061107d575061107c8185610d7d565b5b91505092915050565b8273ffffffffffffffffffffffffffffffffffffffff166110a68261077e565b73ffffffffffffffffffffffffffffffffffffffff16146110fc576040517f08c379a00000000000000000000000000000000000000000000000000000000081526004016110f39061262c565b60405180910390fd5b600073ffffffffffffffffffffffffffffffffffffffff168273ffffffffffffffffffffffffffffffffffffffff16141561116c576040517f08c379a0000000000000000000000000000000000000000000000000000000008152600401611163906126be565b60405180910390fd5b611177838383611684565b611182600082610eef565b6001600360008573ffffffffffffffffffffffffffffffffffffffff1673ffffffffffffffffffffffffffffffffffffffff16815260200190815260200160002060008282546111d291906124f4565b925050819055506001600360008473ffffffffffffffffffffffffffffffffffffffff1673ffffffffffffffffffffffffffffffffffffffff168152602001908152602001600020600082825461122991906126de565b92505081905550816002600083815260200190815260200160002060006101000a81548173ffffffffffffffffffffffffffffffffffffffff021916908373ffffffffffffffffffffffffffffffffffffffff160217905550808273ffffffffffffffffffffffffffffffffffffffff168473ffffffffffffffffffffffffffffffffffffffff167fddf252ad1be2c89b69c2b068fc378daa952ba7f163c4a11628f55a4df523b3ef60405160405180910390a4505050565b6112ed848484611086565b6112f984848484611689565b611338576040517f08c379a000000000000000000000000000000000000000000000000000000000815260040161132f906127a6565b60405180910390fd5b50505050565b606060405180602001604052806000815250905090565b6060600082141561139d576040518060400160405280600181526020017f300000000000000000000000000000000000000000000000000000000000000081525090506114b1565b600082905060005b600082146113cf5780806113b8906127c6565b915050600a826113c8919061283e565b91506113a5565b60008167ffffffffffffffff8111156113eb576113ea611cab565b5b6040519080825280601f01601f19166020018201604052801561141d5781602001600182028036833780820191505090505b5090505b600085146114aa5760018261143691906124f4565b9150600a85611445919061286f565b603061145191906126de565b60f81b818381518110611467576114666128a0565b5b60200101907effffffffffffffffffffffffffffffffffffffffffffffffffffffffffffff1916908160001a905350600a856114a3919061283e565b9450611421565b8093505050505b919050565b600073ffffffffffffffffffffffffffffffffffffffff168273ffffffffffffffffffffffffffffffffffffffff161415611526576040517f08c379a000000000000000000000000000000000000000000000000000000000815260040161151d9061291b565b60405180910390fd5b61152f81610e7b565b1561156f576040517f08c379a000000000000000000000000000000000000000000000000000000000815260040161156690612987565b60405180910390fd5b61157b60008383611684565b6001600360008473ffffffffffffffffffffffffffffffffffffffff1673ffffffffffffffffffffffffffffffffffffffff16815260200190815260200160002060008282546115cb91906126de565b92505081905550816002600083815260200190815260200160002060006101000a81548173ffffffffffffffffffffffffffffffffffffffff021916908373ffffffffffffffffffffffffffffffffffffffff160217905550808273ffffffffffffffffffffffffffffffffffffffff16600073ffffffffffffffffffffffffffffffffffffffff167fddf252ad1be2c89b69c2b068fc378daa952ba7f163c4a11628f55a4df523b3ef60405160405180910390a45050565b505050565b60006116aa8473ffffffffffffffffffffffffffffffffffffffff16611820565b15611813578373ffffffffffffffffffffffffffffffffffffffff1663150b7a026116d3610ee7565b8786866040518563ffffffff1660e01b81526004016116f594939291906129fc565b602060405180830381600087803b15801561170f57600080fd5b505af192505050801561174057506040513d601f19601f8201168201806040525081019061173d9190612a5d565b60015b6117c3573d8060008114611770576040519150601f19603f3d011682016040523d82523d6000602084013e611775565b606091505b506000815114156117bb576040517f08c379a00000000000000000000000000000000000000000000000000000000081526004016117b2906127a6565b60405180910390fd5b805181602001fd5b63150b7a0260e01b7bffffffffffffffffffffffffffffffffffffffffffffffffffffffff1916817bffffffffffffffffffffffffffffffffffffffffffffffffffffffff191614915050611818565b600190505b949350505050565b600080823b905060008111915050919050565b82805461183f90611fb2565b90600052602060002090601f01602090048101928261186157600085556118a8565b82601f1061187a57805160ff19168380011785556118a8565b828001600101855582156118a8579182015b828111156118a757825182559160200191906001019061188c565b5b5090506118b591906118b9565b5090565b5b808211156118d25760008160009055506001016118ba565b5090565b6000604051905090565b600080fd5b600080fd5b60007fffffffff0000000000000000000000000000000000000000000000000000000082169050919050565b61191f816118ea565b811461192a57600080fd5b50565b60008135905061193c81611916565b92915050565b600060208284031215611958576119576118e0565b5b60006119668482850161192d565b91505092915050565b60008115159050919050565b6119848161196f565b82525050565b600060208201905061199f600083018461197b565b92915050565b600081519050919050565b600082825260208201905092915050565b60005b838110156119df5780820151818401526020810190506119c4565b838111156119ee576000848401525b50505050565b6000601f19601f8301169050919050565b6000611a10826119a5565b611a1a81856119b0565b9350611a2a8185602086016119c1565b611a33816119f4565b840191505092915050565b60006020820190508181036000830152611a588184611a05565b905092915050565b6000819050919050565b611a7381611a60565b8114611a7e57600080fd5b50565b600081359050611a9081611a6a565b92915050565b600060208284031215611aac57611aab6118e0565b5b6000611aba84828501611a81565b91505092915050565b600073ffffffffffffffffffffffffffffffffffffffff82169050919050565b6000611aee82611ac3565b9050919050565b611afe81611ae3565b82525050565b6000602082019050611b196000830184611af5565b92915050565b611b2881611ae3565b8114611b3357600080fd5b50565b600081359050611b4581611b1f565b92915050565b60008060408385031215611b6257611b616118e0565b5b6000611b7085828601611b36565b9250506020611b8185828601611a81565b9150509250929050565b611b9481611a60565b82525050565b6000602082019050611baf6000830184611b8b565b92915050565b600080600060608486031215611bce57611bcd6118e0565b5b6000611bdc86828701611b36565b9350506020611bed86828701611b36565b9250506040611bfe86828701611a81565b9150509250925092565b600060208284031215611c1e57611c1d6118e0565b5b6000611c2c84828501611b36565b91505092915050565b611c3e8161196f565b8114611c4957600080fd5b50565b600081359050611c5b81611c35565b92915050565b60008060408385031215611c7857611c776118e0565b5b6000611c8685828601611b36565b9250506020611c9785828601611c4c565b9150509250929050565b600080fd5b600080fd5b7f4e487b7100000000000000000000000000000000000000000000000000000000600052604160045260246000fd5b611ce3826119f4565b810181811067ffffffffffffffff82111715611d0257611d01611cab565b5b80604052505050565b6000611d156118d6565b9050611d218282611cda565b919050565b600067ffffffffffffffff821115611d4157611d40611cab565b5b611d4a826119f4565b9050602081019050919050565b82818337600083830152505050565b6000611d79611d7484611d26565b611d0b565b905082815260208101848484011115611d9557611d94611ca6565b5b611da0848285611d57565b509392505050565b600082601f830112611dbd57611dbc611ca1565b5b8135611dcd848260208601611d66565b91505092915050565b60008060008060808587031215611df057611def6118e0565b5b6000611dfe87828801611b36565b9450506020611e0f87828801611b36565b9350506040611e2087828801611a81565b925050606085013567ffffffffffffffff811115611e4157611e406118e5565b5b611e4d87828801611da8565b91505092959194509250565b600067ffffffffffffffff821115611e7457611e73611cab565b5b611e7d826119f4565b9050602081019050919050565b6000611e9d611e9884611e59565b611d0b565b905082815260208101848484011115611eb957611eb8611ca6565b5b611ec4848285611d57565b509392505050565b600082601f830112611ee157611ee0611ca1565b5b8135611ef1848260208601611e8a565b91505092915050565b600060208284031215611f1057611f0f6118e0565b5b600082013567ffffffffffffffff811115611f2e57611f2d6118e5565b5b611f3a84828501611ecc565b91505092915050565b60008060408385031215611f5a57611f596118e0565b5b6000611f6885828601611b36565b9250506020611f7985828601611b36565b9150509250929050565b7f4e487b7100000000000000000000000000000000000000000000000000000000600052602260045260246000fd5b60006002820490506001821680611fca57607f821691505b60208210811415611fde57611fdd611f83565b5b50919050565b7f4552433732313a20617070726f76656420717565727920666f72206e6f6e657860008201527f697374656e7420746f6b656e0000000000000000000000000000000000000000602082015250565b6000612040602c836119b0565b915061204b82611fe4565b604082019050919050565b6000602082019050818103600083015261206f81612033565b9050919050565b7f4552433732313a20617070726f76616c20746f2063757272656e74206f776e6560008201527f7200000000000000000000000000000000000000000000000000000000000000602082015250565b60006120d26021836119b0565b91506120dd82612076565b604082019050919050565b60006020820190508181036000830152612101816120c5565b9050919050565b7f4552433732313a20617070726f76652063616c6c6572206973206e6f74206f7760008201527f6e6572206e6f7220617070726f76656420666f7220616c6c0000000000000000602082015250565b60006121646038836119b0565b915061216f82612108565b604082019050919050565b6000602082019050818103600083015261219381612157565b9050919050565b7f4552433732313a207472616e736665722063616c6c6572206973206e6f74206f60008201527f776e6572206e6f7220617070726f766564000000000000000000000000000000602082015250565b60006121f66031836119b0565b91506122018261219a565b604082019050919050565b60006020820190508181036000830152612225816121e9565b9050919050565b7f4552433732313a206f776e657220717565727920666f72206e6f6e657869737460008201527f656e7420746f6b656e0000000000000000000000000000000000000000000000602082015250565b60006122886029836119b0565b91506122938261222c565b604082019050919050565b600060208201905081810360008301526122b78161227b565b9050919050565b7f4552433732313a2062616c616e636520717565727920666f7220746865207a6560008201527f726f206164647265737300000000000000000000000000000000000000000000602082015250565b600061231a602a836119b0565b9150612325826122be565b604082019050919050565b600060208201905081810360008301526123498161230d565b9050919050565b7f4552433732313a20617070726f766520746f2063616c6c657200000000000000600082015250565b60006123866019836119b0565b915061239182612350565b602082019050919050565b600060208201905081810360008301526123b581612379565b9050919050565b7f4552433732314d657461646174613a2055524920717565727920666f72206e6f60008201527f6e6578697374656e7420746f6b656e0000000000000000000000000000000000602082015250565b6000612418602f836119b0565b9150612423826123bc565b604082019050919050565b600060208201905081810360008301526124478161240b565b9050919050565b600081905092915050565b6000612464826119a5565b61246e818561244e565b935061247e8185602086016119c1565b80840191505092915050565b60006124968285612459565b91506124a28284612459565b91508190509392505050565b60006124ba8284612459565b915081905092915050565b7f4e487b7100000000000000000000000000000000000000000000000000000000600052601160045260246000fd5b60006124ff82611a60565b915061250a83611a60565b92508282101561251d5761251c6124c5565b5b828203905092915050565b7f4552433732313a206f70657261746f7220717565727920666f72206e6f6e657860008201527f697374656e7420746f6b656e0000000000000000000000000000000000000000602082015250565b6000612584602c836119b0565b915061258f82612528565b604082019050919050565b600060208201905081810360008301526125b381612577565b9050919050565b7f4552433732313a207472616e73666572206f6620746f6b656e2074686174206960008201527f73206e6f74206f776e0000000000000000000000000000000000000000000000602082015250565b60006126166029836119b0565b9150612621826125ba565b604082019050919050565b6000602082019050818103600083015261264581612609565b9050919050565b7f4552433732313a207472616e7366657220746f20746865207a65726f2061646460008201527f7265737300000000000000000000000000000000000000000000000000000000602082015250565b60006126a86024836119b0565b91506126b38261264c565b604082019050919050565b600060208201905081810360008301526126d78161269b565b9050919050565b60006126e982611a60565b91506126f483611a60565b9250827fffffffffffffffffffffffffffffffffffffffffffffffffffffffffffffffff03821115612729576127286124c5565b5b828201905092915050565b7f4552433732313a207472616e7366657220746f206e6f6e20455243373231526560008201527f63656976657220696d706c656d656e7465720000000000000000000000000000602082015250565b60006127906032836119b0565b915061279b82612734565b604082019050919050565b600060208201905081810360008301526127bf81612783565b9050919050565b60006127d182611a60565b91507fffffffffffffffffffffffffffffffffffffffffffffffffffffffffffffffff821415612804576128036124c5565b5b600182019050919050565b7f4e487b7100000000000000000000000000000000000000000000000000000000600052601260045260246000fd5b600061284982611a60565b915061285483611a60565b9250826128645761286361280f565b5b828204905092915050565b600061287a82611a60565b915061288583611a60565b9250826128955761289461280f565b5b828206905092915050565b7f4e487b7100000000000000000000000000000000000000000000000000000000600052603260045260246000fd5b7f4552433732313a206d696e7420746f20746865207a65726f2061646472657373600082015250565b60006129056020836119b0565b9150612910826128cf565b602082019050919050565b60006020820190508181036000830152612934816128f8565b9050919050565b7f4552433732313a20746f6b656e20616c7265616479206d696e74656400000000600082015250565b6000612971601c836119b0565b915061297c8261293b565b602082019050919050565b600060208201905081810360008301526129a081612964565b9050919050565b600081519050919050565b600082825260208201905092915050565b60006129ce826129a7565b6129d881856129b2565b93506129e88185602086016119c1565b6129f1816119f4565b840191505092915050565b6000608082019050612a116000830187611af5565b612a1e6020830186611af5565b612a2b6040830185611b8b565b8181036060830152612a3d81846129c3565b905095945050505050565b600081519050612a5781611916565b92915050565b600060208284031215612a7357612a726118e0565b5b6000612a8184828501612a48565b9150509291505056fea2646970667358221220ce1730d0988212b38bb7abe218df8bf07eab3531333b96e8127b0dd25bba860b64736f6c63430008090033",
  "immutableReferences": {},
  "source": "pragma solidity ^0.8.9;\r\n\r\nimport \"@openzeppelin/contracts/token/ERC721/ERC721.sol\";\r\nimport \"@openzeppelin/contracts/token/ERC721/extensions/ERC721Enumerable.sol\";\r\n\r\ncontract Color is ERC721, IERC721Enumerable {\r\n\r\n   string[] public colors;\r\n   mapping(string => bool) _colorExists;\r\n\r\n\r\n    constructor() ERC721 (\"Color\", \"COLOR\") public{\r\n    }\r\n   \r\n   function mint(string memory _color) public {\r\n      require(!_colorExists[_color]);\r\n\r\n       colors.push(_color);\r\n       uint _id = colors.length - 1;\r\n       _mint(msg.sender, _id);\r\n       _colorExists[_color] = true;\r\n    }\r\n\r\n    function tokenOfOwnerByIndex(address owner, uint256 index) public view override returns (uint256) {\r\n        // You need update this logic.\r\n        // ...\r\n        return 3;\r\n    }\r\n\r\n    function totalSupply() external  view override returns (uint256) {\r\n      // You need update this logic.\r\n      // ...\r\n      return 1;\r\n    }\r\n\r\n    function tokenByIndex(uint256 index) external view  override returns (uint256) {\r\n      // You need update this logic.\r\n      // ...\r\n      return 5;\r\n    }\r\n}",
  "sourcePath": "C:\\Users\\krushil kotadeeya\\nft\\src\\contracts\\Color.sol",
  "compiler": {
    "name": "solc",
    "version": "0.8.9+commit.e5eed63a.Emscripten.clang"
  },
  "schemaVersion": "3.4.3",
  "updatedAt": "2021-10-03T08:51:03.520Z",
  "networkType": "ethereum",
  "devdoc": {
    "kind": "dev",
    "methods": {
      "approve(address,uint256)": {
        "details": "See {IERC721-approve}."
      },
      "balanceOf(address)": {
        "details": "See {IERC721-balanceOf}."
      },
      "getApproved(uint256)": {
        "details": "See {IERC721-getApproved}."
      },
      "isApprovedForAll(address,address)": {
        "details": "See {IERC721-isApprovedForAll}."
      },
      "name()": {
        "details": "See {IERC721Metadata-name}."
      },
      "ownerOf(uint256)": {
        "details": "See {IERC721-ownerOf}."
      },
      "safeTransferFrom(address,address,uint256)": {
        "details": "See {IERC721-safeTransferFrom}."
      },
      "safeTransferFrom(address,address,uint256,bytes)": {
        "details": "See {IERC721-safeTransferFrom}."
      },
      "setApprovalForAll(address,bool)": {
        "details": "See {IERC721-setApprovalForAll}."
      },
      "supportsInterface(bytes4)": {
        "details": "See {IERC165-supportsInterface}."
      },
      "symbol()": {
        "details": "See {IERC721Metadata-symbol}."
      },
      "tokenByIndex(uint256)": {
        "details": "Returns a token ID at a given `index` of all the tokens stored by the contract. Use along with {totalSupply} to enumerate all tokens."
      },
      "tokenOfOwnerByIndex(address,uint256)": {
        "details": "Returns a token ID owned by `owner` at a given `index` of its token list. Use along with {balanceOf} to enumerate all of ``owner``'s tokens."
      },
      "tokenURI(uint256)": {
        "details": "See {IERC721Metadata-tokenURI}."
      },
      "totalSupply()": {
        "details": "Returns the total amount of tokens stored by the contract."
      },
      "transferFrom(address,address,uint256)": {
        "details": "See {IERC721-transferFrom}."
      }
    },
    "version": 1
  },
  "userdoc": {
    "kind": "user",
    "methods": {},
    "version": 1
  }
}